:1003C1000106011501260137014A015D017201880B
:1003D100019F01B801D001EE020B022A024B026E0D
:1003E100029302BA02E40310033F037003A403E67D
:1003F10004160455049704DD0526057505C8062075
:10040100067D06E0074907B8110413041504110419
:100411001104130415041104150416041804150419
:100421001604180418021A021802160215041104FF
:1004310018021A0218021602150401041104180404
:08044100110411041804110458
:08005200020B000A020D000080
:10044900750D04750E09750F00751020438E80E433
:10045900F589758A20758CD1C28CC2A9438E047521
:0F046900D72075D6D1438E1043AF04D2AF80FE9B
:03000B00020003ED
:03000300B2B53261
:0300630002023660
:10023600C0E0C0F0C083C082C0D075D000C000C08E
:0D02460001C002C003C004C005C006C0070F
:10025300050AE50AD39464500302031A750A00E5FC
:0B0263000B540F7006C28CD2B5804E09
:10026E00E50BC4540F75F018A424BFF582E43403D3
:10027E00F583E50B540F75F00212015C74019325A2
:10028E00E0FFE49333AB07FAE4F9F8FF7E1B7DB78A
:10029E00FC12000EC3E49FF512E49EF511438E800E
:0E02AE0075890085128AE511F58CD28CD2A9D3
:0E02BC00E50C6004150C8056E50E450D6050F3
:1002CA00C3E5099510E508950F502CE50925E0FFCF
:1002DA00E50833FEEF250EFFEE350DFAA9077BFF81
:1002EA00780B7C007D007E007F021201360509E54D
:1002FA0009701D05088019750800750900AA0DA95D
:10030A000E7BFF780B7C007D007E007F0212013697
:10031A00D007D006D005D004D003D002D001D00037
:0B032A00D0D0D082D083D0F0D0E032E1
:03000000020335C3
:0C033500787FE4F6D8FD75811202037C8D
:10006600E709F608DFFA8046E709F208DFFA803E7C
:1000760088828C83E709F0A3DFFA8032E309F60869
:10008600DFFA8078E309F208DFFA807088828C83D1
:10009600E309F0A3DFFA806489828A83E0A3F60885
:1000A600DFFA805889828A83E0A3F208DFFA804C5F
:1000B60080D280FA80C680D4806980F28033801036
:1000C60080A680EA809A80A880DA80E280CA80339F
:1000D60089828A83ECFAE493A3C8C582C8CCC58317
:1000E600CCF0A3C8C582C8CCC583CCDFE9DEE780E7
:1000F6000D89828A83E493A3F608DFF9ECFAA9F066
:10010600EDFB2289828A83ECFAE0A3C8C582C8CCBB
:10011600C583CCF0A3C8C582C8CCC583CCDFEADED4
:10012600E880DB89828A83E493A3F208DFF980CC36
:1001360088F0EF60010E4E60C388F0ED2402B4042F
:100146000050B9F582EB2402B4040050AF232345D6
:0601560082239000B67345
:10000E00C2D5E830E70FB2D5E4C39BFBE49AFAE41D
:10001E0099F9E498F8EC30E717B2D51200441201C2
:10002E00A4E4C39BFBE49AFAE499F9E498F88003FC
:10003E001201A430D50DE4C39FFFE49EFEE49DFDA6
:04004E00E49CFC2210
:0C015C00A42582F582E5F03583F58322AE
:10034100020449E493A3F8E493A34003F68001F285
:1003510008DFF48029E493A3F85407240CC8C333BD
:10036100C4540F4420C8834004F456800146F6DF8C
:10037100E4800B0102040810204080900052E47ECA
:10038100019360BCA3FF543F30E509541FFEE49381
:10039100A360010ECF54C025E060A840B8E493A348
:1003A100FAE493A3F8E493A3C8C582C8CAC583CA73
:1003B100F0A3C8C582C8CAC583CADFE9DEE780BE2B
:01005A0000A5
:1001680075F008758200EF2FFFEE33FECD33CDCC4E
:1001780033CCC58233C5829BED9AEC99E5829840D1
:100188000CF582EE9BFEED9AFDEC99FC0FD5F0D6AE
:10019800E4CEFBE4CDFAE4CCF9A88222B800C1B9D8
:1001A8000059BA002DEC8BF084CFCECDFCE5F0CB16
:1001B800F97818EF2FFFEE33FEED33FDEC33FCEB4F
:1001C80033FB10D703994004EB99FB0FD8E5E4F90A
:1001D800FA227818EF2FFFEE33FEED33FDEC33FCF7
:1001E800C933C910D7059BE99A4007EC9BFCE99AEB
:1001F800F90FD8E0E4C9FAE4CCFB2275F010EF2F30
:10020800FFEE33FEED33FDCC33CCC833C810D7072F
:100218009BEC9AE899400AED9BFDEC9AFCE899F86A
:0E0228000FD5F0DAE4CDFBE4CCFAE4C8F922FD
:00000001FF
